{
  "_format": "hh-sol-artifact-1",
  "contractName": "BadgeToken",
  "sourceName": "contracts/BadgeToken.sol",
  "abi": [
    {
      "inputs": [
        {
          "internalType": "string",
          "name": "_name",
          "type": "string"
        },
        {
          "internalType": "string",
          "name": "_symbol",
          "type": "string"
        }
      ],
      "stateMutability": "nonpayable",
      "type": "constructor"
    },
    {
      "anonymous": false,
      "inputs": [
        {
          "indexed": true,
          "internalType": "address",
          "name": "owner",
          "type": "address"
        },
        {
          "indexed": true,
          "internalType": "address",
          "name": "approved",
          "type": "address"
        },
        {
          "indexed": true,
          "internalType": "uint256",
          "name": "tokenId",
          "type": "uint256"
        }
      ],
      "name": "Approval",
      "type": "event"
    },
    {
      "anonymous": false,
      "inputs": [
        {
          "indexed": true,
          "internalType": "address",
          "name": "owner",
          "type": "address"
        },
        {
          "indexed": true,
          "internalType": "address",
          "name": "operator",
          "type": "address"
        },
        {
          "indexed": false,
          "internalType": "bool",
          "name": "approved",
          "type": "bool"
        }
      ],
      "name": "ApprovalForAll",
      "type": "event"
    },
    {
      "anonymous": false,
      "inputs": [
        {
          "indexed": true,
          "internalType": "address",
          "name": "from",
          "type": "address"
        },
        {
          "indexed": true,
          "internalType": "address",
          "name": "to",
          "type": "address"
        },
        {
          "indexed": true,
          "internalType": "uint256",
          "name": "tokenId",
          "type": "uint256"
        }
      ],
      "name": "Transfer",
      "type": "event"
    },
    {
      "inputs": [],
      "name": "_getCurrentTokenId",
      "outputs": [
        {
          "internalType": "uint256",
          "name": "",
          "type": "uint256"
        }
      ],
      "stateMutability": "view",
      "type": "function"
    },
    {
      "inputs": [
        {
          "internalType": "address",
          "name": "to",
          "type": "address"
        },
        {
          "internalType": "uint256",
          "name": "tokenId",
          "type": "uint256"
        }
      ],
      "name": "approve",
      "outputs": [],
      "stateMutability": "nonpayable",
      "type": "function"
    },
    {
      "inputs": [
        {
          "internalType": "address",
          "name": "owner",
          "type": "address"
        }
      ],
      "name": "balanceOf",
      "outputs": [
        {
          "internalType": "uint256",
          "name": "",
          "type": "uint256"
        }
      ],
      "stateMutability": "view",
      "type": "function"
    },
    {
      "inputs": [
        {
          "internalType": "uint256",
          "name": "tokenId",
          "type": "uint256"
        }
      ],
      "name": "getApproved",
      "outputs": [
        {
          "internalType": "address",
          "name": "",
          "type": "address"
        }
      ],
      "stateMutability": "view",
      "type": "function"
    },
    {
      "inputs": [
        {
          "internalType": "address",
          "name": "owner",
          "type": "address"
        },
        {
          "internalType": "address",
          "name": "operator",
          "type": "address"
        }
      ],
      "name": "isApprovedForAll",
      "outputs": [
        {
          "internalType": "bool",
          "name": "",
          "type": "bool"
        }
      ],
      "stateMutability": "view",
      "type": "function"
    },
    {
      "inputs": [
        {
          "internalType": "address",
          "name": "_to",
          "type": "address"
        },
        {
          "internalType": "string",
          "name": "_token_uri",
          "type": "string"
        }
      ],
      "name": "mintTo",
      "outputs": [],
      "stateMutability": "nonpayable",
      "type": "function"
    },
    {
      "inputs": [],
      "name": "name",
      "outputs": [
        {
          "internalType": "string",
          "name": "",
          "type": "string"
        }
      ],
      "stateMutability": "view",
      "type": "function"
    },
    {
      "inputs": [
        {
          "internalType": "uint256",
          "name": "tokenId",
          "type": "uint256"
        }
      ],
      "name": "ownerOf",
      "outputs": [
        {
          "internalType": "address",
          "name": "",
          "type": "address"
        }
      ],
      "stateMutability": "view",
      "type": "function"
    },
    {
      "inputs": [
        {
          "internalType": "address",
          "name": "from",
          "type": "address"
        },
        {
          "internalType": "address",
          "name": "to",
          "type": "address"
        },
        {
          "internalType": "uint256",
          "name": "tokenId",
          "type": "uint256"
        }
      ],
      "name": "safeTransferFrom",
      "outputs": [],
      "stateMutability": "nonpayable",
      "type": "function"
    },
    {
      "inputs": [
        {
          "internalType": "address",
          "name": "from",
          "type": "address"
        },
        {
          "internalType": "address",
          "name": "to",
          "type": "address"
        },
        {
          "internalType": "uint256",
          "name": "tokenId",
          "type": "uint256"
        },
        {
          "internalType": "bytes",
          "name": "data",
          "type": "bytes"
        }
      ],
      "name": "safeTransferFrom",
      "outputs": [],
      "stateMutability": "nonpayable",
      "type": "function"
    },
    {
      "inputs": [
        {
          "internalType": "address",
          "name": "operator",
          "type": "address"
        },
        {
          "internalType": "bool",
          "name": "approved",
          "type": "bool"
        }
      ],
      "name": "setApprovalForAll",
      "outputs": [],
      "stateMutability": "nonpayable",
      "type": "function"
    },
    {
      "inputs": [
        {
          "internalType": "bytes4",
          "name": "interfaceId",
          "type": "bytes4"
        }
      ],
      "name": "supportsInterface",
      "outputs": [
        {
          "internalType": "bool",
          "name": "",
          "type": "bool"
        }
      ],
      "stateMutability": "view",
      "type": "function"
    },
    {
      "inputs": [],
      "name": "symbol",
      "outputs": [
        {
          "internalType": "string",
          "name": "",
          "type": "string"
        }
      ],
      "stateMutability": "view",
      "type": "function"
    },
    {
      "inputs": [
        {
          "internalType": "uint256",
          "name": "tokenId",
          "type": "uint256"
        }
      ],
      "name": "tokenURI",
      "outputs": [
        {
          "internalType": "string",
          "name": "",
          "type": "string"
        }
      ],
      "stateMutability": "view",
      "type": "function"
    },
    {
      "inputs": [
        {
          "internalType": "address",
          "name": "from",
          "type": "address"
        },
        {
          "internalType": "address",
          "name": "to",
          "type": "address"
        },
        {
          "internalType": "uint256",
          "name": "tokenId",
          "type": "uint256"
        }
      ],
      "name": "transferFrom",
      "outputs": [],
      "stateMutability": "nonpayable",
      "type": "function"
    }
  ],
  "bytecode": "0x608060405260006007553480156200001657600080fd5b506040516200302e3803806200302e83398181016040528101906200003c9190620001ff565b818181600090816200004f9190620004cf565b508060019081620000619190620004cf565b5050505050620005b6565b6000604051905090565b600080fd5b600080fd5b600080fd5b600080fd5b6000601f19601f8301169050919050565b7f4e487b7100000000000000000000000000000000000000000000000000000000600052604160045260246000fd5b620000d5826200008a565b810181811067ffffffffffffffff82111715620000f757620000f66200009b565b5b80604052505050565b60006200010c6200006c565b90506200011a8282620000ca565b919050565b600067ffffffffffffffff8211156200013d576200013c6200009b565b5b62000148826200008a565b9050602081019050919050565b60005b838110156200017557808201518184015260208101905062000158565b60008484015250505050565b60006200019862000192846200011f565b62000100565b905082815260208101848484011115620001b757620001b662000085565b5b620001c484828562000155565b509392505050565b600082601f830112620001e457620001e362000080565b5b8151620001f684826020860162000181565b91505092915050565b6000806040838503121562000219576200021862000076565b5b600083015167ffffffffffffffff8111156200023a57620002396200007b565b5b6200024885828601620001cc565b925050602083015167ffffffffffffffff8111156200026c576200026b6200007b565b5b6200027a85828601620001cc565b9150509250929050565b600081519050919050565b7f4e487b7100000000000000000000000000000000000000000000000000000000600052602260045260246000fd5b60006002820490506001821680620002d757607f821691505b602082108103620002ed57620002ec6200028f565b5b50919050565b60008190508160005260206000209050919050565b60006020601f8301049050919050565b600082821b905092915050565b600060088302620003577fffffffffffffffffffffffffffffffffffffffffffffffffffffffffffffffff8262000318565b62000363868362000318565b95508019841693508086168417925050509392505050565b6000819050919050565b6000819050919050565b6000620003b0620003aa620003a4846200037b565b62000385565b6200037b565b9050919050565b6000819050919050565b620003cc836200038f565b620003e4620003db82620003b7565b84845462000325565b825550505050565b600090565b620003fb620003ec565b62000408818484620003c1565b505050565b5b81811015620004305762000424600082620003f1565b6001810190506200040e565b5050565b601f8211156200047f576200044981620002f3565b620004548462000308565b8101602085101562000464578190505b6200047c620004738562000308565b8301826200040d565b50505b505050565b600082821c905092915050565b6000620004a46000198460080262000484565b1980831691505092915050565b6000620004bf838362000491565b9150826002028217905092915050565b620004da8262000284565b67ffffffffffffffff811115620004f657620004f56200009b565b5b620005028254620002be565b6200050f82828562000434565b600060209050601f83116001811462000547576000841562000532578287015190505b6200053e8582620004b1565b865550620005ae565b601f1984166200055786620002f3565b60005b8281101562000581578489015182556001820191506020850194506020810190506200055a565b86831015620005a157848901516200059d601f89168262000491565b8355505b6001600288020188555050505b505050505050565b612a6880620005c66000396000f3fe608060405234801561001057600080fd5b50600436106100f45760003560e01c806343d5bff311610097578063a22cb46511610066578063a22cb46514610283578063b88d4fde1461029f578063c87b56dd146102bb578063e985e9c5146102eb576100f4565b806343d5bff3146101e75780636352211e1461020557806370a082311461023557806395d89b4114610265576100f4565b8063081812fc116100d3578063081812fc14610163578063095ea7b31461019357806323b872dd146101af57806342842e0e146101cb576100f4565b806275a317146100f957806301ffc9a71461011557806306fdde0314610145575b600080fd5b610113600480360381019061010e9190611933565b61031b565b005b61012f600480360381019061012a91906119e7565b610348565b60405161013c9190611a2f565b60405180910390f35b61014d61042a565b60405161015a9190611ac9565b60405180910390f35b61017d60048036038101906101789190611b21565b6104bc565b60405161018a9190611b5d565b60405180910390f35b6101ad60048036038101906101a89190611b78565b610502565b005b6101c960048036038101906101c49190611bb8565b610619565b005b6101e560048036038101906101e09190611bb8565b610679565b005b6101ef610699565b6040516101fc9190611c1a565b60405180910390f35b61021f600480360381019061021a9190611b21565b6106a3565b60405161022c9190611b5d565b60405180910390f35b61024f600480360381019061024a9190611c35565b610754565b60405161025c9190611c1a565b60405180910390f35b61026d61080b565b60405161027a9190611ac9565b60405180910390f35b61029d60048036038101906102989190611c8e565b61089d565b005b6102b960048036038101906102b49190611d6f565b6108b3565b005b6102d560048036038101906102d09190611b21565b610915565b6040516102e29190611ac9565b60405180910390f35b61030560048036038101906103009190611df2565b610927565b6040516103129190611a2f565b60405180910390f35b60006103256109bb565b905061033183826109d1565b61033b8183610baa565b610343610c17565b505050565b60007f80ac58cd000000000000000000000000000000000000000000000000000000007bffffffffffffffffffffffffffffffffffffffffffffffffffffffff1916827bffffffffffffffffffffffffffffffffffffffffffffffffffffffff1916148061041357507f5b5e139f000000000000000000000000000000000000000000000000000000007bffffffffffffffffffffffffffffffffffffffffffffffffffffffff1916827bffffffffffffffffffffffffffffffffffffffffffffffffffffffff1916145b80610423575061042282610c31565b5b9050919050565b60606000805461043990611e61565b80601f016020809104026020016040519081016040528092919081815260200182805461046590611e61565b80156104b25780601f10610487576101008083540402835291602001916104b2565b820191906000526020600020905b81548152906001019060200180831161049557829003601f168201915b5050505050905090565b60006104c782610c9b565b6004600083815260200190815260200160002060009054906101000a900473ffffffffffffffffffffffffffffffffffffffff169050919050565b600061050d826106a3565b90508073ffffffffffffffffffffffffffffffffffffffff168373ffffffffffffffffffffffffffffffffffffffff160361057d576040517f08c379a000000000000000000000000000000000000000000000000000000000815260040161057490611f04565b60405180910390fd5b8073ffffffffffffffffffffffffffffffffffffffff1661059c610ce6565b73ffffffffffffffffffffffffffffffffffffffff1614806105cb57506105ca816105c5610ce6565b610927565b5b61060a576040517f08c379a000000000000000000000000000000000000000000000000000000000815260040161060190611f96565b60405180910390fd5b6106148383610cee565b505050565b61062a610624610ce6565b82610da7565b610669576040517f08c379a000000000000000000000000000000000000000000000000000000000815260040161066090612028565b60405180910390fd5b610674838383610e3c565b505050565b610694838383604051806020016040528060008152506108b3565b505050565b6000600754905090565b6000806002600084815260200190815260200160002060009054906101000a900473ffffffffffffffffffffffffffffffffffffffff169050600073ffffffffffffffffffffffffffffffffffffffff168173ffffffffffffffffffffffffffffffffffffffff160361074b576040517f08c379a000000000000000000000000000000000000000000000000000000000815260040161074290612094565b60405180910390fd5b80915050919050565b60008073ffffffffffffffffffffffffffffffffffffffff168273ffffffffffffffffffffffffffffffffffffffff16036107c4576040517f08c379a00000000000000000000000000000000000000000000000000000000081526004016107bb90612126565b60405180910390fd5b600360008373ffffffffffffffffffffffffffffffffffffffff1673ffffffffffffffffffffffffffffffffffffffff168152602001908152602001600020549050919050565b60606001805461081a90611e61565b80601f016020809104026020016040519081016040528092919081815260200182805461084690611e61565b80156108935780601f1061086857610100808354040283529160200191610893565b820191906000526020600020905b81548152906001019060200180831161087657829003601f168201915b5050505050905090565b6108af6108a8610ce6565b83836110a2565b5050565b6108c46108be610ce6565b83610da7565b610903576040517f08c379a00000000000000000000000000000000000000000000000000000000081526004016108fa90612028565b60405180910390fd5b61090f8484848461120e565b50505050565b60606109208261126a565b9050919050565b6000600560008473ffffffffffffffffffffffffffffffffffffffff1673ffffffffffffffffffffffffffffffffffffffff16815260200190815260200160002060008373ffffffffffffffffffffffffffffffffffffffff1673ffffffffffffffffffffffffffffffffffffffff16815260200190815260200160002060009054906101000a900460ff16905092915050565b600060016007546109cc9190612175565b905090565b600073ffffffffffffffffffffffffffffffffffffffff168273ffffffffffffffffffffffffffffffffffffffff1603610a40576040517f08c379a0000000000000000000000000000000000000000000000000000000008152600401610a37906121f5565b60405180910390fd5b610a498161137c565b15610a89576040517f08c379a0000000000000000000000000000000000000000000000000000000008152600401610a8090612261565b60405180910390fd5b610a95600083836113e8565b6001600360008473ffffffffffffffffffffffffffffffffffffffff1673ffffffffffffffffffffffffffffffffffffffff1681526020019081526020016000206000828254610ae59190612175565b92505081905550816002600083815260200190815260200160002060006101000a81548173ffffffffffffffffffffffffffffffffffffffff021916908373ffffffffffffffffffffffffffffffffffffffff160217905550808273ffffffffffffffffffffffffffffffffffffffff16600073ffffffffffffffffffffffffffffffffffffffff167fddf252ad1be2c89b69c2b068fc378daa952ba7f163c4a11628f55a4df523b3ef60405160405180910390a4610ba6600083836113ed565b5050565b610bb38261137c565b610bf2576040517f08c379a0000000000000000000000000000000000000000000000000000000008152600401610be9906122f3565b60405180910390fd5b80600660008481526020019081526020016000209081610c1291906124bf565b505050565b60076000815480929190610c2a90612591565b9190505550565b60007f01ffc9a7000000000000000000000000000000000000000000000000000000007bffffffffffffffffffffffffffffffffffffffffffffffffffffffff1916827bffffffffffffffffffffffffffffffffffffffffffffffffffffffff1916149050919050565b610ca48161137c565b610ce3576040517f08c379a0000000000000000000000000000000000000000000000000000000008152600401610cda90612094565b60405180910390fd5b50565b600033905090565b816004600083815260200190815260200160002060006101000a81548173ffffffffffffffffffffffffffffffffffffffff021916908373ffffffffffffffffffffffffffffffffffffffff160217905550808273ffffffffffffffffffffffffffffffffffffffff16610d61836106a3565b73ffffffffffffffffffffffffffffffffffffffff167f8c5be1e5ebec7d5bd14f71427d1e84f3dd0314c0f7b2291e5b200ac8c7c3b92560405160405180910390a45050565b600080610db3836106a3565b90508073ffffffffffffffffffffffffffffffffffffffff168473ffffffffffffffffffffffffffffffffffffffff161480610df55750610df48185610927565b5b80610e3357508373ffffffffffffffffffffffffffffffffffffffff16610e1b846104bc565b73ffffffffffffffffffffffffffffffffffffffff16145b91505092915050565b8273ffffffffffffffffffffffffffffffffffffffff16610e5c826106a3565b73ffffffffffffffffffffffffffffffffffffffff1614610eb2576040517f08c379a0000000000000000000000000000000000000000000000000000000008152600401610ea99061264b565b60405180910390fd5b600073ffffffffffffffffffffffffffffffffffffffff168273ffffffffffffffffffffffffffffffffffffffff1603610f21576040517f08c379a0000000000000000000000000000000000000000000000000000000008152600401610f18906126dd565b60405180910390fd5b610f2c8383836113e8565b610f37600082610cee565b6001600360008573ffffffffffffffffffffffffffffffffffffffff1673ffffffffffffffffffffffffffffffffffffffff1681526020019081526020016000206000828254610f8791906126fd565b925050819055506001600360008473ffffffffffffffffffffffffffffffffffffffff1673ffffffffffffffffffffffffffffffffffffffff1681526020019081526020016000206000828254610fde9190612175565b92505081905550816002600083815260200190815260200160002060006101000a81548173ffffffffffffffffffffffffffffffffffffffff021916908373ffffffffffffffffffffffffffffffffffffffff160217905550808273ffffffffffffffffffffffffffffffffffffffff168473ffffffffffffffffffffffffffffffffffffffff167fddf252ad1be2c89b69c2b068fc378daa952ba7f163c4a11628f55a4df523b3ef60405160405180910390a461109d8383836113ed565b505050565b8173ffffffffffffffffffffffffffffffffffffffff168373ffffffffffffffffffffffffffffffffffffffff1603611110576040517f08c379a00000000000000000000000000000000000000000000000000000000081526004016111079061277d565b60405180910390fd5b80600560008573ffffffffffffffffffffffffffffffffffffffff1673ffffffffffffffffffffffffffffffffffffffff16815260200190815260200160002060008473ffffffffffffffffffffffffffffffffffffffff1673ffffffffffffffffffffffffffffffffffffffff16815260200190815260200160002060006101000a81548160ff0219169083151502179055508173ffffffffffffffffffffffffffffffffffffffff168373ffffffffffffffffffffffffffffffffffffffff167f17307eab39ab6107e8899845ad3d59bd9653f200f220920489ca2b5937696c31836040516112019190611a2f565b60405180910390a3505050565b611219848484610e3c565b611225848484846113f2565b611264576040517f08c379a000000000000000000000000000000000000000000000000000000000815260040161125b9061280f565b60405180910390fd5b50505050565b606061127582610c9b565b600060066000848152602001908152602001600020805461129590611e61565b80601f01602080910402602001604051908101604052809291908181526020018280546112c190611e61565b801561130e5780601f106112e35761010080835404028352916020019161130e565b820191906000526020600020905b8154815290600101906020018083116112f157829003601f168201915b50505050509050600061131f611579565b90506000815103611334578192505050611377565b60008251111561136957808260405160200161135192919061286b565b60405160208183030381529060405292505050611377565b61137284611590565b925050505b919050565b60008073ffffffffffffffffffffffffffffffffffffffff166002600084815260200190815260200160002060009054906101000a900473ffffffffffffffffffffffffffffffffffffffff1673ffffffffffffffffffffffffffffffffffffffff1614159050919050565b505050565b505050565b60006114138473ffffffffffffffffffffffffffffffffffffffff166115f8565b1561156c578373ffffffffffffffffffffffffffffffffffffffff1663150b7a0261143c610ce6565b8786866040518563ffffffff1660e01b815260040161145e94939291906128e4565b6020604051808303816000875af192505050801561149a57506040513d601f19601f820116820180604052508101906114979190612945565b60015b61151c573d80600081146114ca576040519150601f19603f3d011682016040523d82523d6000602084013e6114cf565b606091505b506000815103611514576040517f08c379a000000000000000000000000000000000000000000000000000000000815260040161150b9061280f565b60405180910390fd5b805181602001fd5b63150b7a0260e01b7bffffffffffffffffffffffffffffffffffffffffffffffffffffffff1916817bffffffffffffffffffffffffffffffffffffffffffffffffffffffff191614915050611571565b600190505b949350505050565b606060405180602001604052806000815250905090565b606061159b82610c9b565b60006115a5611579565b905060008151116115c557604051806020016040528060008152506115f0565b806115cf8461161b565b6040516020016115e092919061286b565b6040516020818303038152906040525b915050919050565b6000808273ffffffffffffffffffffffffffffffffffffffff163b119050919050565b606060008203611662576040518060400160405280600181526020017f30000000000000000000000000000000000000000000000000000000000000008152509050611776565b600082905060005b6000821461169457808061167d90612591565b915050600a8261168d91906129a1565b915061166a565b60008167ffffffffffffffff8111156116b0576116af611808565b5b6040519080825280601f01601f1916602001820160405280156116e25781602001600182028036833780820191505090505b5090505b6000851461176f576001826116fb91906126fd565b9150600a8561170a91906129d2565b60306117169190612175565b60f81b81838151811061172c5761172b612a03565b5b60200101907effffffffffffffffffffffffffffffffffffffffffffffffffffffffffffff1916908160001a905350600a8561176891906129a1565b94506116e6565b8093505050505b919050565b6000604051905090565b600080fd5b600080fd5b600073ffffffffffffffffffffffffffffffffffffffff82169050919050565b60006117ba8261178f565b9050919050565b6117ca816117af565b81146117d557600080fd5b50565b6000813590506117e7816117c1565b92915050565b600080fd5b600080fd5b6000601f19601f8301169050919050565b7f4e487b7100000000000000000000000000000000000000000000000000000000600052604160045260246000fd5b611840826117f7565b810181811067ffffffffffffffff8211171561185f5761185e611808565b5b80604052505050565b600061187261177b565b905061187e8282611837565b919050565b600067ffffffffffffffff82111561189e5761189d611808565b5b6118a7826117f7565b9050602081019050919050565b82818337600083830152505050565b60006118d66118d184611883565b611868565b9050828152602081018484840111156118f2576118f16117f2565b5b6118fd8482856118b4565b509392505050565b600082601f83011261191a576119196117ed565b5b813561192a8482602086016118c3565b91505092915050565b6000806040838503121561194a57611949611785565b5b6000611958858286016117d8565b925050602083013567ffffffffffffffff8111156119795761197861178a565b5b61198585828601611905565b9150509250929050565b60007fffffffff0000000000000000000000000000000000000000000000000000000082169050919050565b6119c48161198f565b81146119cf57600080fd5b50565b6000813590506119e1816119bb565b92915050565b6000602082840312156119fd576119fc611785565b5b6000611a0b848285016119d2565b91505092915050565b60008115159050919050565b611a2981611a14565b82525050565b6000602082019050611a446000830184611a20565b92915050565b600081519050919050565b600082825260208201905092915050565b60005b83811015611a84578082015181840152602081019050611a69565b60008484015250505050565b6000611a9b82611a4a565b611aa58185611a55565b9350611ab5818560208601611a66565b611abe816117f7565b840191505092915050565b60006020820190508181036000830152611ae38184611a90565b905092915050565b6000819050919050565b611afe81611aeb565b8114611b0957600080fd5b50565b600081359050611b1b81611af5565b92915050565b600060208284031215611b3757611b36611785565b5b6000611b4584828501611b0c565b91505092915050565b611b57816117af565b82525050565b6000602082019050611b726000830184611b4e565b92915050565b60008060408385031215611b8f57611b8e611785565b5b6000611b9d858286016117d8565b9250506020611bae85828601611b0c565b9150509250929050565b600080600060608486031215611bd157611bd0611785565b5b6000611bdf868287016117d8565b9350506020611bf0868287016117d8565b9250506040611c0186828701611b0c565b9150509250925092565b611c1481611aeb565b82525050565b6000602082019050611c2f6000830184611c0b565b92915050565b600060208284031215611c4b57611c4a611785565b5b6000611c59848285016117d8565b91505092915050565b611c6b81611a14565b8114611c7657600080fd5b50565b600081359050611c8881611c62565b92915050565b60008060408385031215611ca557611ca4611785565b5b6000611cb3858286016117d8565b9250506020611cc485828601611c79565b9150509250929050565b600067ffffffffffffffff821115611ce957611ce8611808565b5b611cf2826117f7565b9050602081019050919050565b6000611d12611d0d84611cce565b611868565b905082815260208101848484011115611d2e57611d2d6117f2565b5b611d398482856118b4565b509392505050565b600082601f830112611d5657611d556117ed565b5b8135611d66848260208601611cff565b91505092915050565b60008060008060808587031215611d8957611d88611785565b5b6000611d97878288016117d8565b9450506020611da8878288016117d8565b9350506040611db987828801611b0c565b925050606085013567ffffffffffffffff811115611dda57611dd961178a565b5b611de687828801611d41565b91505092959194509250565b60008060408385031215611e0957611e08611785565b5b6000611e17858286016117d8565b9250506020611e28858286016117d8565b9150509250929050565b7f4e487b7100000000000000000000000000000000000000000000000000000000600052602260045260246000fd5b60006002820490506001821680611e7957607f821691505b602082108103611e8c57611e8b611e32565b5b50919050565b7f4552433732313a20617070726f76616c20746f2063757272656e74206f776e6560008201527f7200000000000000000000000000000000000000000000000000000000000000602082015250565b6000611eee602183611a55565b9150611ef982611e92565b604082019050919050565b60006020820190508181036000830152611f1d81611ee1565b9050919050565b7f4552433732313a20617070726f76652063616c6c6572206973206e6f7420746f60008201527f6b656e206f776e6572206e6f7220617070726f76656420666f7220616c6c0000602082015250565b6000611f80603e83611a55565b9150611f8b82611f24565b604082019050919050565b60006020820190508181036000830152611faf81611f73565b9050919050565b7f4552433732313a2063616c6c6572206973206e6f7420746f6b656e206f776e6560008201527f72206e6f7220617070726f766564000000000000000000000000000000000000602082015250565b6000612012602e83611a55565b915061201d82611fb6565b604082019050919050565b6000602082019050818103600083015261204181612005565b9050919050565b7f4552433732313a20696e76616c696420746f6b656e2049440000000000000000600082015250565b600061207e601883611a55565b915061208982612048565b602082019050919050565b600060208201905081810360008301526120ad81612071565b9050919050565b7f4552433732313a2061646472657373207a65726f206973206e6f74206120766160008201527f6c6964206f776e65720000000000000000000000000000000000000000000000602082015250565b6000612110602983611a55565b915061211b826120b4565b604082019050919050565b6000602082019050818103600083015261213f81612103565b9050919050565b7f4e487b7100000000000000000000000000000000000000000000000000000000600052601160045260246000fd5b600061218082611aeb565b915061218b83611aeb565b92508282019050808211156121a3576121a2612146565b5b92915050565b7f4552433732313a206d696e7420746f20746865207a65726f2061646472657373600082015250565b60006121df602083611a55565b91506121ea826121a9565b602082019050919050565b6000602082019050818103600083015261220e816121d2565b9050919050565b7f4552433732313a20746f6b656e20616c7265616479206d696e74656400000000600082015250565b600061224b601c83611a55565b915061225682612215565b602082019050919050565b6000602082019050818103600083015261227a8161223e565b9050919050565b7f45524337323155524953746f726167653a2055524920736574206f66206e6f6e60008201527f6578697374656e7420746f6b656e000000000000000000000000000000000000602082015250565b60006122dd602e83611a55565b91506122e882612281565b604082019050919050565b6000602082019050818103600083015261230c816122d0565b9050919050565b60008190508160005260206000209050919050565b60006020601f8301049050919050565b600082821b905092915050565b6000600883026123757fffffffffffffffffffffffffffffffffffffffffffffffffffffffffffffffff82612338565b61237f8683612338565b95508019841693508086168417925050509392505050565b6000819050919050565b60006123bc6123b76123b284611aeb565b612397565b611aeb565b9050919050565b6000819050919050565b6123d6836123a1565b6123ea6123e2826123c3565b848454612345565b825550505050565b600090565b6123ff6123f2565b61240a8184846123cd565b505050565b5b8181101561242e576124236000826123f7565b600181019050612410565b5050565b601f8211156124735761244481612313565b61244d84612328565b8101602085101561245c578190505b61247061246885612328565b83018261240f565b50505b505050565b600082821c905092915050565b600061249660001984600802612478565b1980831691505092915050565b60006124af8383612485565b9150826002028217905092915050565b6124c882611a4a565b67ffffffffffffffff8111156124e1576124e0611808565b5b6124eb8254611e61565b6124f6828285612432565b600060209050601f8311600181146125295760008415612517578287015190505b61252185826124a3565b865550612589565b601f19841661253786612313565b60005b8281101561255f5784890151825560018201915060208501945060208101905061253a565b8683101561257c5784890151612578601f891682612485565b8355505b6001600288020188555050505b505050505050565b600061259c82611aeb565b91507fffffffffffffffffffffffffffffffffffffffffffffffffffffffffffffffff82036125ce576125cd612146565b5b600182019050919050565b7f4552433732313a207472616e736665722066726f6d20696e636f72726563742060008201527f6f776e6572000000000000000000000000000000000000000000000000000000602082015250565b6000612635602583611a55565b9150612640826125d9565b604082019050919050565b6000602082019050818103600083015261266481612628565b9050919050565b7f4552433732313a207472616e7366657220746f20746865207a65726f2061646460008201527f7265737300000000000000000000000000000000000000000000000000000000602082015250565b60006126c7602483611a55565b91506126d28261266b565b604082019050919050565b600060208201905081810360008301526126f6816126ba565b9050919050565b600061270882611aeb565b915061271383611aeb565b925082820390508181111561272b5761272a612146565b5b92915050565b7f4552433732313a20617070726f766520746f2063616c6c657200000000000000600082015250565b6000612767601983611a55565b915061277282612731565b602082019050919050565b600060208201905081810360008301526127968161275a565b9050919050565b7f4552433732313a207472616e7366657220746f206e6f6e20455243373231526560008201527f63656976657220696d706c656d656e7465720000000000000000000000000000602082015250565b60006127f9603283611a55565b91506128048261279d565b604082019050919050565b60006020820190508181036000830152612828816127ec565b9050919050565b600081905092915050565b600061284582611a4a565b61284f818561282f565b935061285f818560208601611a66565b80840191505092915050565b6000612877828561283a565b9150612883828461283a565b91508190509392505050565b600081519050919050565b600082825260208201905092915050565b60006128b68261288f565b6128c0818561289a565b93506128d0818560208601611a66565b6128d9816117f7565b840191505092915050565b60006080820190506128f96000830187611b4e565b6129066020830186611b4e565b6129136040830185611c0b565b818103606083015261292581846128ab565b905095945050505050565b60008151905061293f816119bb565b92915050565b60006020828403121561295b5761295a611785565b5b600061296984828501612930565b91505092915050565b7f4e487b7100000000000000000000000000000000000000000000000000000000600052601260045260246000fd5b60006129ac82611aeb565b91506129b783611aeb565b9250826129c7576129c6612972565b5b828204905092915050565b60006129dd82611aeb565b91506129e883611aeb565b9250826129f8576129f7612972565b5b828206905092915050565b7f4e487b7100000000000000000000000000000000000000000000000000000000600052603260045260246000fdfea2646970667358221220d07d8cde8024eeecec4f647b26eeac4d2ce02244be452ee8cd48b12dbb69732a64736f6c63430008110033",
  "linkReferences": {},
  "deployedLinkReferences": {}
}