{
  "_format": "hh-sol-artifact-1",
  "contractName": "NFTMarketplace",
  "sourceName": "contracts/NFTMarketplace.sol",
  "abi": [
    {
      "inputs": [],
      "stateMutability": "nonpayable",
      "type": "constructor"
    },
    {
      "anonymous": false,
      "inputs": [
        {
          "indexed": true,
          "internalType": "uint256",
          "name": "id",
          "type": "uint256"
        },
        {
          "indexed": true,
          "internalType": "address",
          "name": "nftContract",
          "type": "address"
        },
        {
          "indexed": true,
          "internalType": "uint256",
          "name": "tokenId",
          "type": "uint256"
        },
        {
          "indexed": false,
          "internalType": "address",
          "name": "seller",
          "type": "address"
        },
        {
          "indexed": false,
          "internalType": "address",
          "name": "buyer",
          "type": "address"
        },
        {
          "indexed": false,
          "internalType": "uint256",
          "name": "price",
          "type": "uint256"
        },
        {
          "indexed": false,
          "internalType": "string",
          "name": "name",
          "type": "string"
        },
        {
          "indexed": false,
          "internalType": "string",
          "name": "description",
          "type": "string"
        },
        {
          "indexed": false,
          "internalType": "enum NFTMarketplace.State",
          "name": "state",
          "type": "uint8"
        }
      ],
      "name": "MarketItemCreated",
      "type": "event"
    },
    {
      "anonymous": false,
      "inputs": [
        {
          "indexed": true,
          "internalType": "uint256",
          "name": "id",
          "type": "uint256"
        },
        {
          "indexed": true,
          "internalType": "address",
          "name": "nftContract",
          "type": "address"
        },
        {
          "indexed": true,
          "internalType": "uint256",
          "name": "tokenId",
          "type": "uint256"
        },
        {
          "indexed": false,
          "internalType": "address",
          "name": "seller",
          "type": "address"
        },
        {
          "indexed": false,
          "internalType": "address",
          "name": "buyer",
          "type": "address"
        },
        {
          "indexed": false,
          "internalType": "uint256",
          "name": "price",
          "type": "uint256"
        },
        {
          "indexed": false,
          "internalType": "string",
          "name": "name",
          "type": "string"
        },
        {
          "indexed": false,
          "internalType": "string",
          "name": "description",
          "type": "string"
        },
        {
          "indexed": false,
          "internalType": "enum NFTMarketplace.State",
          "name": "state",
          "type": "uint8"
        }
      ],
      "name": "MarketItemSold",
      "type": "event"
    },
    {
      "anonymous": false,
      "inputs": [
        {
          "indexed": true,
          "internalType": "uint256",
          "name": "id",
          "type": "uint256"
        },
        {
          "indexed": true,
          "internalType": "address",
          "name": "nftContract",
          "type": "address"
        },
        {
          "indexed": true,
          "internalType": "uint256",
          "name": "tokenId",
          "type": "uint256"
        },
        {
          "indexed": false,
          "internalType": "address",
          "name": "seller",
          "type": "address"
        },
        {
          "indexed": false,
          "internalType": "address",
          "name": "buyer",
          "type": "address"
        },
        {
          "indexed": false,
          "internalType": "uint256",
          "name": "price",
          "type": "uint256"
        },
        {
          "indexed": false,
          "internalType": "string",
          "name": "name",
          "type": "string"
        },
        {
          "indexed": false,
          "internalType": "string",
          "name": "description",
          "type": "string"
        },
        {
          "indexed": false,
          "internalType": "enum NFTMarketplace.State",
          "name": "state",
          "type": "uint8"
        }
      ],
      "name": "MarketItemUsed",
      "type": "event"
    },
    {
      "inputs": [
        {
          "internalType": "address",
          "name": "nftContract",
          "type": "address"
        },
        {
          "internalType": "uint256",
          "name": "tokenId",
          "type": "uint256"
        },
        {
          "internalType": "uint256",
          "name": "price",
          "type": "uint256"
        },
        {
          "internalType": "string",
          "name": "name",
          "type": "string"
        },
        {
          "internalType": "string",
          "name": "description",
          "type": "string"
        }
      ],
      "name": "createMarketItem",
      "outputs": [],
      "stateMutability": "payable",
      "type": "function"
    },
    {
      "inputs": [
        {
          "internalType": "address",
          "name": "nftContract",
          "type": "address"
        },
        {
          "internalType": "uint256",
          "name": "id",
          "type": "uint256"
        }
      ],
      "name": "createMarketSale",
      "outputs": [],
      "stateMutability": "payable",
      "type": "function"
    },
    {
      "inputs": [],
      "name": "fetchActiveItems",
      "outputs": [
        {
          "components": [
            {
              "internalType": "uint256",
              "name": "id",
              "type": "uint256"
            },
            {
              "internalType": "address",
              "name": "nftContract",
              "type": "address"
            },
            {
              "internalType": "uint256",
              "name": "tokenId",
              "type": "uint256"
            },
            {
              "internalType": "address payable",
              "name": "seller",
              "type": "address"
            },
            {
              "internalType": "address payable",
              "name": "buyer",
              "type": "address"
            },
            {
              "internalType": "uint256",
              "name": "price",
              "type": "uint256"
            },
            {
              "internalType": "string",
              "name": "name",
              "type": "string"
            },
            {
              "internalType": "string",
              "name": "description",
              "type": "string"
            },
            {
              "internalType": "enum NFTMarketplace.State",
              "name": "state",
              "type": "uint8"
            }
          ],
          "internalType": "struct NFTMarketplace.MarketItem[]",
          "name": "",
          "type": "tuple[]"
        }
      ],
      "stateMutability": "view",
      "type": "function"
    },
    {
      "inputs": [],
      "name": "fetchMyCreatedItems",
      "outputs": [
        {
          "components": [
            {
              "internalType": "uint256",
              "name": "id",
              "type": "uint256"
            },
            {
              "internalType": "address",
              "name": "nftContract",
              "type": "address"
            },
            {
              "internalType": "uint256",
              "name": "tokenId",
              "type": "uint256"
            },
            {
              "internalType": "address payable",
              "name": "seller",
              "type": "address"
            },
            {
              "internalType": "address payable",
              "name": "buyer",
              "type": "address"
            },
            {
              "internalType": "uint256",
              "name": "price",
              "type": "uint256"
            },
            {
              "internalType": "string",
              "name": "name",
              "type": "string"
            },
            {
              "internalType": "string",
              "name": "description",
              "type": "string"
            },
            {
              "internalType": "enum NFTMarketplace.State",
              "name": "state",
              "type": "uint8"
            }
          ],
          "internalType": "struct NFTMarketplace.MarketItem[]",
          "name": "",
          "type": "tuple[]"
        }
      ],
      "stateMutability": "view",
      "type": "function"
    },
    {
      "inputs": [],
      "name": "fetchMyPurchasedItems",
      "outputs": [
        {
          "components": [
            {
              "internalType": "uint256",
              "name": "id",
              "type": "uint256"
            },
            {
              "internalType": "address",
              "name": "nftContract",
              "type": "address"
            },
            {
              "internalType": "uint256",
              "name": "tokenId",
              "type": "uint256"
            },
            {
              "internalType": "address payable",
              "name": "seller",
              "type": "address"
            },
            {
              "internalType": "address payable",
              "name": "buyer",
              "type": "address"
            },
            {
              "internalType": "uint256",
              "name": "price",
              "type": "uint256"
            },
            {
              "internalType": "string",
              "name": "name",
              "type": "string"
            },
            {
              "internalType": "string",
              "name": "description",
              "type": "string"
            },
            {
              "internalType": "enum NFTMarketplace.State",
              "name": "state",
              "type": "uint8"
            }
          ],
          "internalType": "struct NFTMarketplace.MarketItem[]",
          "name": "",
          "type": "tuple[]"
        }
      ],
      "stateMutability": "view",
      "type": "function"
    },
    {
      "inputs": [],
      "name": "fetchMyUsedItems",
      "outputs": [
        {
          "components": [
            {
              "internalType": "uint256",
              "name": "id",
              "type": "uint256"
            },
            {
              "internalType": "address",
              "name": "nftContract",
              "type": "address"
            },
            {
              "internalType": "uint256",
              "name": "tokenId",
              "type": "uint256"
            },
            {
              "internalType": "address payable",
              "name": "seller",
              "type": "address"
            },
            {
              "internalType": "address payable",
              "name": "buyer",
              "type": "address"
            },
            {
              "internalType": "uint256",
              "name": "price",
              "type": "uint256"
            },
            {
              "internalType": "string",
              "name": "name",
              "type": "string"
            },
            {
              "internalType": "string",
              "name": "description",
              "type": "string"
            },
            {
              "internalType": "enum NFTMarketplace.State",
              "name": "state",
              "type": "uint8"
            }
          ],
          "internalType": "struct NFTMarketplace.MarketItem[]",
          "name": "",
          "type": "tuple[]"
        }
      ],
      "stateMutability": "view",
      "type": "function"
    },
    {
      "inputs": [],
      "name": "getListingFee",
      "outputs": [
        {
          "internalType": "uint256",
          "name": "",
          "type": "uint256"
        }
      ],
      "stateMutability": "view",
      "type": "function"
    },
    {
      "inputs": [],
      "name": "listingFee",
      "outputs": [
        {
          "internalType": "uint256",
          "name": "",
          "type": "uint256"
        }
      ],
      "stateMutability": "view",
      "type": "function"
    },
    {
      "inputs": [],
      "name": "marketowner",
      "outputs": [
        {
          "internalType": "address payable",
          "name": "",
          "type": "address"
        }
      ],
      "stateMutability": "view",
      "type": "function"
    },
    {
      "inputs": [
        {
          "internalType": "uint256",
          "name": "itemId",
          "type": "uint256"
        },
        {
          "internalType": "address",
          "name": "buyer",
          "type": "address"
        }
      ],
      "name": "usedMarketItemMerchant",
      "outputs": [],
      "stateMutability": "nonpayable",
      "type": "function"
    }
  ],
  "bytecode": "0x60806040526658d15e1762800060045534801561001b57600080fd5b50600160008190555033600360006101000a81548173ffffffffffffffffffffffffffffffffffffffff021916908373ffffffffffffffffffffffffffffffffffffffff160217905550612b7d806100746000396000f3fe6080604052600436106100915760003560e01c8063ab76ce1611610059578063ab76ce161461015e578063b8fe6abe14610189578063c23b139e146101b4578063da0841d5146101d0578063ef8da9da146101f957610091565b8063332b386b146100965780635e385b92146100c15780636a1b7ecc146100ec57806377fd98af146101175780637d48526914610142575b600080fd5b3480156100a257600080fd5b506100ab610224565b6040516100b89190611e81565b60405180910390f35b3480156100cd57600080fd5b506100d6610235565b6040516100e39190611eb2565b60405180910390f35b3480156100f857600080fd5b5061010161025b565b60405161010e9190611edc565b60405180910390f35b34801561012357600080fd5b5061012c610261565b6040516101399190611e81565b60405180910390f35b61015c60048036038101906101579190612098565b610272565b005b34801561016a57600080fd5b506101736106ad565b6040516101809190611e81565b60405180910390f35b34801561019557600080fd5b5061019e6106be565b6040516101ab9190611edc565b60405180910390f35b6101ce60048036038101906101c9919061214b565b6106c8565b005b3480156101dc57600080fd5b506101f760048036038101906101f2919061218b565b610ade565b005b34801561020557600080fd5b5061020e610e12565b60405161021b9190611e81565b60405180910390f35b60606102306000610e23565b905090565b600360009054906101000a900473ffffffffffffffffffffffffffffffffffffffff1681565b60045481565b606061026d6003610e23565b905090565b6002600054036102b7576040517f08c379a00000000000000000000000000000000000000000000000000000000081526004016102ae90612228565b60405180910390fd5b600260008190555060008311610302576040517f08c379a00000000000000000000000000000000000000000000000000000000081526004016102f990612294565b60405180910390fd5b6004543414610346576040517f08c379a000000000000000000000000000000000000000000000000000000000815260040161033d90612300565b60405180910390fd5b610350600161170f565b600061035c6001611725565b90506040518061012001604052808281526020018773ffffffffffffffffffffffffffffffffffffffff1681526020018681526020013373ffffffffffffffffffffffffffffffffffffffff168152602001600073ffffffffffffffffffffffffffffffffffffffff168152602001858152602001848152602001838152602001600060038111156103f1576103f0611ca8565b5b815250600560008381526020019081526020016000206000820151816000015560208201518160010160006101000a81548173ffffffffffffffffffffffffffffffffffffffff021916908373ffffffffffffffffffffffffffffffffffffffff1602179055506040820151816002015560608201518160030160006101000a81548173ffffffffffffffffffffffffffffffffffffffff021916908373ffffffffffffffffffffffffffffffffffffffff16021790555060808201518160040160006101000a81548173ffffffffffffffffffffffffffffffffffffffff021916908373ffffffffffffffffffffffffffffffffffffffff16021790555060a0820151816005015560c082015181600601908161050f919061252c565b5060e0820151816007019081610525919061252c565b506101008201518160080160006101000a81548160ff0219169083600381111561055257610551611ca8565b5b02179055509050503073ffffffffffffffffffffffffffffffffffffffff168673ffffffffffffffffffffffffffffffffffffffff1663081812fc876040518263ffffffff1660e01b81526004016105aa9190611edc565b602060405180830381865afa1580156105c7573d6000803e3d6000fd5b505050506040513d601f19601f820116820180604052508101906105eb9190612613565b73ffffffffffffffffffffffffffffffffffffffff1614610641576040517f08c379a00000000000000000000000000000000000000000000000000000000081526004016106389061268c565b60405180910390fd5b848673ffffffffffffffffffffffffffffffffffffffff16827f230d2698116f7c7f240bb268ef39f54eb0dfc6c5fee4c739e6e127406b7711f3336000898989600060405161069596959493929190612703565b60405180910390a45060016000819055505050505050565b60606106b96001610e23565b905090565b6000600454905090565b60026000540361070d576040517f08c379a000000000000000000000000000000000000000000000000000000000815260040161070490612228565b60405180910390fd5b60026000819055506000600560008381526020019081526020016000209050600081600501549050600082600201549050813414610780576040517f08c379a0000000000000000000000000000000000000000000000000000000008152600401610777906127be565b60405180910390fd5b3073ffffffffffffffffffffffffffffffffffffffff168573ffffffffffffffffffffffffffffffffffffffff1663081812fc836040518263ffffffff1660e01b81526004016107d09190611edc565b602060405180830381865afa1580156107ed573d6000803e3d6000fd5b505050506040513d601f19601f820116820180604052508101906108119190612613565b73ffffffffffffffffffffffffffffffffffffffff1614610867576040517f08c379a000000000000000000000000000000000000000000000000000000000815260040161085e9061268c565b60405180910390fd5b338360040160006101000a81548173ffffffffffffffffffffffffffffffffffffffff021916908373ffffffffffffffffffffffffffffffffffffffff16021790555060018360080160006101000a81548160ff021916908360038111156108d2576108d1611ca8565b5b02179055506108e1600261170f565b8473ffffffffffffffffffffffffffffffffffffffff166323b872dd8460030160009054906101000a900473ffffffffffffffffffffffffffffffffffffffff1633846040518463ffffffff1660e01b815260040161094293929190612833565b600060405180830381600087803b15801561095c57600080fd5b505af1158015610970573d6000803e3d6000fd5b50505050600360009054906101000a900473ffffffffffffffffffffffffffffffffffffffff1673ffffffffffffffffffffffffffffffffffffffff166108fc6004549081150290604051600060405180830381858888f193505050501580156109de573d6000803e3d6000fd5b508260030160009054906101000a900473ffffffffffffffffffffffffffffffffffffffff1673ffffffffffffffffffffffffffffffffffffffff166108fc349081150290604051600060405180830381858888f19350505050158015610a49573d6000803e3d6000fd5b50808573ffffffffffffffffffffffffffffffffffffffff16857f24d06bf0f7c93e9163fd156a4efbb8a0cd352f98da50dc77925acc0ab54bf07f8660030160009054906101000a900473ffffffffffffffffffffffffffffffffffffffff163387896006018a6007016001604051610ac7969594939291906128ee565b60405180910390a450505060016000819055505050565b600260005403610b23576040517f08c379a0000000000000000000000000000000000000000000000000000000008152600401610b1a90612228565b60405180910390fd5b6002600081905550610b356001611725565b821115610b77576040517f08c379a0000000000000000000000000000000000000000000000000000000008152600401610b6e906129a9565b60405180910390fd5b60016003811115610b8b57610b8a611ca8565b5b6005600084815260200190815260200160002060080160009054906101000a900460ff166003811115610bc157610bc0611ca8565b5b14610c01576040517f08c379a0000000000000000000000000000000000000000000000000000000008152600401610bf890612a15565b60405180910390fd5b60006005600084815260200190815260200160002090508173ffffffffffffffffffffffffffffffffffffffff168160010160009054906101000a900473ffffffffffffffffffffffffffffffffffffffff1673ffffffffffffffffffffffffffffffffffffffff16636352211e83600201546040518263ffffffff1660e01b8152600401610c909190611edc565b602060405180830381865afa158015610cad573d6000803e3d6000fd5b505050506040513d601f19601f82011682018060405250810190610cd19190612613565b73ffffffffffffffffffffffffffffffffffffffff1614610d27576040517f08c379a0000000000000000000000000000000000000000000000000000000008152600401610d1e90612a81565b60405180910390fd5b60038160080160006101000a81548160ff02191690836003811115610d4f57610d4e611ca8565b5b021790555080600201548160010160009054906101000a900473ffffffffffffffffffffffffffffffffffffffff1673ffffffffffffffffffffffffffffffffffffffff16847f951ecf6c8a1cec46c42f9ea42281f26989a6c61f3d2f3689fbc801b61133da658460030160009054906101000a900473ffffffffffffffffffffffffffffffffffffffff1686866005015487600601886007016003604051610dfd969594939291906128ee565b60405180910390a45060016000819055505050565b6060610e1e6002610e23565b905090565b60606000610e316001611725565b9050600080600190505b828111611110576110e96005600083815260200190815260200160002060405180610120016040529081600082015481526020016001820160009054906101000a900473ffffffffffffffffffffffffffffffffffffffff1673ffffffffffffffffffffffffffffffffffffffff1673ffffffffffffffffffffffffffffffffffffffff168152602001600282015481526020016003820160009054906101000a900473ffffffffffffffffffffffffffffffffffffffff1673ffffffffffffffffffffffffffffffffffffffff1673ffffffffffffffffffffffffffffffffffffffff1681526020016004820160009054906101000a900473ffffffffffffffffffffffffffffffffffffffff1673ffffffffffffffffffffffffffffffffffffffff1673ffffffffffffffffffffffffffffffffffffffff16815260200160058201548152602001600682018054610f949061234f565b80601f0160208091040260200160405190810160405280929190818152602001828054610fc09061234f565b801561100d5780601f10610fe25761010080835404028352916020019161100d565b820191906000526020600020905b815481529060010190602001808311610ff057829003601f168201915b505050505081526020016007820180546110269061234f565b80601f01602080910402602001604051908101604052809291908181526020018280546110529061234f565b801561109f5780601f106110745761010080835404028352916020019161109f565b820191906000526020600020905b81548152906001019060200180831161108257829003601f168201915b505050505081526020016008820160009054906101000a900460ff1660038111156110cd576110cc611ca8565b5b60038111156110df576110de611ca8565b5b8152505086611733565b156110fd5781806110f990612ad0565b9250505b808061110890612ad0565b915050610e3b565b506000808267ffffffffffffffff81111561112e5761112d611f6d565b5b60405190808252806020026020018201604052801561116757816020015b611154611ad1565b81526020019060019003908161114c5790505b5090506000600190505b8481116117025761141f6005600083815260200190815260200160002060405180610120016040529081600082015481526020016001820160009054906101000a900473ffffffffffffffffffffffffffffffffffffffff1673ffffffffffffffffffffffffffffffffffffffff1673ffffffffffffffffffffffffffffffffffffffff168152602001600282015481526020016003820160009054906101000a900473ffffffffffffffffffffffffffffffffffffffff1673ffffffffffffffffffffffffffffffffffffffff1673ffffffffffffffffffffffffffffffffffffffff1681526020016004820160009054906101000a900473ffffffffffffffffffffffffffffffffffffffff1673ffffffffffffffffffffffffffffffffffffffff1673ffffffffffffffffffffffffffffffffffffffff168152602001600582015481526020016006820180546112ca9061234f565b80601f01602080910402602001604051908101604052809291908181526020018280546112f69061234f565b80156113435780601f1061131857610100808354040283529160200191611343565b820191906000526020600020905b81548152906001019060200180831161132657829003601f168201915b5050505050815260200160078201805461135c9061234f565b80601f01602080910402602001604051908101604052809291908181526020018280546113889061234f565b80156113d55780601f106113aa576101008083540402835291602001916113d5565b820191906000526020600020905b8154815290600101906020018083116113b857829003601f168201915b505050505081526020016008820160009054906101000a900460ff16600381111561140357611402611ca8565b5b600381111561141557611414611ca8565b5b8152505088611733565b156116ef576005600082815260200190815260200160002060405180610120016040529081600082015481526020016001820160009054906101000a900473ffffffffffffffffffffffffffffffffffffffff1673ffffffffffffffffffffffffffffffffffffffff1673ffffffffffffffffffffffffffffffffffffffff168152602001600282015481526020016003820160009054906101000a900473ffffffffffffffffffffffffffffffffffffffff1673ffffffffffffffffffffffffffffffffffffffff1673ffffffffffffffffffffffffffffffffffffffff1681526020016004820160009054906101000a900473ffffffffffffffffffffffffffffffffffffffff1673ffffffffffffffffffffffffffffffffffffffff1673ffffffffffffffffffffffffffffffffffffffff168152602001600582015481526020016006820180546115739061234f565b80601f016020809104026020016040519081016040528092919081815260200182805461159f9061234f565b80156115ec5780601f106115c1576101008083540402835291602001916115ec565b820191906000526020600020905b8154815290600101906020018083116115cf57829003601f168201915b505050505081526020016007820180546116059061234f565b80601f01602080910402602001604051908101604052809291908181526020018280546116319061234f565b801561167e5780601f106116535761010080835404028352916020019161167e565b820191906000526020600020905b81548152906001019060200180831161166157829003601f168201915b505050505081526020016008820160009054906101000a900460ff1660038111156116ac576116ab611ca8565b5b60038111156116be576116bd611ca8565b5b815250508284815181106116d5576116d4612b18565b5b602002602001018190525082806116eb90612ad0565b9350505b80806116fa90612ad0565b915050611171565b5080945050505050919050565b6001816000016000828254019250508190555050565b600081600001549050919050565b60006002600381111561174957611748611ca8565b5b82600381111561175c5761175b611ca8565b5b036117df573373ffffffffffffffffffffffffffffffffffffffff16836060015173ffffffffffffffffffffffffffffffffffffffff161480156117ca5750600260038111156117af576117ae611ca8565b5b83610100015160038111156117c7576117c6611ca8565b5b14155b6117d55760006117d8565b60015b9050611acb565b600160038111156117f3576117f2611ca8565b5b82600381111561180657611805611ca8565b5b036118bd573373ffffffffffffffffffffffffffffffffffffffff16836080015173ffffffffffffffffffffffffffffffffffffffff16148015611873575060038081111561185857611857611ca8565b5b83610100015160038111156118705761186f611ca8565b5b14155b80156118a857506001600381111561188e5761188d611ca8565b5b83610100015160038111156118a6576118a5611ca8565b5b145b6118b35760006118b6565b60015b9050611acb565b600060038111156118d1576118d0611ca8565b5b8260038111156118e4576118e3611ca8565b5b03611a1f57600073ffffffffffffffffffffffffffffffffffffffff16836080015173ffffffffffffffffffffffffffffffffffffffff1614801561195257506000600381111561193857611937611ca8565b5b83610100015160038111156119505761194f611ca8565b5b145b8015611a0a57503073ffffffffffffffffffffffffffffffffffffffff16836020015173ffffffffffffffffffffffffffffffffffffffff1663081812fc85604001516040518263ffffffff1660e01b81526004016119b19190611edc565b602060405180830381865afa1580156119ce573d6000803e3d6000fd5b505050506040513d601f19601f820116820180604052508101906119f29190612613565b73ffffffffffffffffffffffffffffffffffffffff16145b611a15576000611a18565b60015b9050611acb565b600380811115611a3257611a31611ca8565b5b826003811115611a4557611a44611ca8565b5b03611ac6573373ffffffffffffffffffffffffffffffffffffffff16836080015173ffffffffffffffffffffffffffffffffffffffff16148015611ab15750600380811115611a9757611a96611ca8565b5b8361010001516003811115611aaf57611aae611ca8565b5b145b611abc576000611abf565b60015b9050611acb565b600090505b92915050565b60405180610120016040528060008152602001600073ffffffffffffffffffffffffffffffffffffffff16815260200160008152602001600073ffffffffffffffffffffffffffffffffffffffff168152602001600073ffffffffffffffffffffffffffffffffffffffff16815260200160008152602001606081526020016060815260200160006003811115611b6b57611b6a611ca8565b5b81525090565b600081519050919050565b600082825260208201905092915050565b6000819050602082019050919050565b6000819050919050565b611bb081611b9d565b82525050565b600073ffffffffffffffffffffffffffffffffffffffff82169050919050565b6000611be182611bb6565b9050919050565b611bf181611bd6565b82525050565b6000611c0282611bb6565b9050919050565b611c1281611bf7565b82525050565b600081519050919050565b600082825260208201905092915050565b60005b83811015611c52578082015181840152602081019050611c37565b60008484015250505050565b6000601f19601f8301169050919050565b6000611c7a82611c18565b611c848185611c23565b9350611c94818560208601611c34565b611c9d81611c5e565b840191505092915050565b7f4e487b7100000000000000000000000000000000000000000000000000000000600052602160045260246000fd5b60048110611ce857611ce7611ca8565b5b50565b6000819050611cf982611cd7565b919050565b6000611d0982611ceb565b9050919050565b611d1981611cfe565b82525050565b600061012083016000830151611d386000860182611ba7565b506020830151611d4b6020860182611be8565b506040830151611d5e6040860182611ba7565b506060830151611d716060860182611c09565b506080830151611d846080860182611c09565b5060a0830151611d9760a0860182611ba7565b5060c083015184820360c0860152611daf8282611c6f565b91505060e083015184820360e0860152611dc98282611c6f565b915050610100830151611de0610100860182611d10565b508091505092915050565b6000611df78383611d1f565b905092915050565b6000602082019050919050565b6000611e1782611b71565b611e218185611b7c565b935083602082028501611e3385611b8d565b8060005b85811015611e6f5784840389528151611e508582611deb565b9450611e5b83611dff565b925060208a01995050600181019050611e37565b50829750879550505050505092915050565b60006020820190508181036000830152611e9b8184611e0c565b905092915050565b611eac81611bf7565b82525050565b6000602082019050611ec76000830184611ea3565b92915050565b611ed681611b9d565b82525050565b6000602082019050611ef16000830184611ecd565b92915050565b6000604051905090565b600080fd5b600080fd5b611f1481611bd6565b8114611f1f57600080fd5b50565b600081359050611f3181611f0b565b92915050565b611f4081611b9d565b8114611f4b57600080fd5b50565b600081359050611f5d81611f37565b92915050565b600080fd5b600080fd5b7f4e487b7100000000000000000000000000000000000000000000000000000000600052604160045260246000fd5b611fa582611c5e565b810181811067ffffffffffffffff82111715611fc457611fc3611f6d565b5b80604052505050565b6000611fd7611ef7565b9050611fe38282611f9c565b919050565b600067ffffffffffffffff82111561200357612002611f6d565b5b61200c82611c5e565b9050602081019050919050565b82818337600083830152505050565b600061203b61203684611fe8565b611fcd565b90508281526020810184848401111561205757612056611f68565b5b612062848285612019565b509392505050565b600082601f83011261207f5761207e611f63565b5b813561208f848260208601612028565b91505092915050565b600080600080600060a086880312156120b4576120b3611f01565b5b60006120c288828901611f22565b95505060206120d388828901611f4e565b94505060406120e488828901611f4e565b935050606086013567ffffffffffffffff81111561210557612104611f06565b5b6121118882890161206a565b925050608086013567ffffffffffffffff81111561213257612131611f06565b5b61213e8882890161206a565b9150509295509295909350565b6000806040838503121561216257612161611f01565b5b600061217085828601611f22565b925050602061218185828601611f4e565b9150509250929050565b600080604083850312156121a2576121a1611f01565b5b60006121b085828601611f4e565b92505060206121c185828601611f22565b9150509250929050565b600082825260208201905092915050565b7f5265656e7472616e637947756172643a207265656e7472616e742063616c6c00600082015250565b6000612212601f836121cb565b915061221d826121dc565b602082019050919050565b6000602082019050818103600083015261224181612205565b9050919050565b7f5072696365206d757374206265206174206c6561737420312077656900000000600082015250565b600061227e601c836121cb565b915061228982612248565b602082019050919050565b600060208201905081810360008301526122ad81612271565b9050919050565b7f466565206d75737420626520657175616c20746f206c697374696e6720666565600082015250565b60006122ea6020836121cb565b91506122f5826122b4565b602082019050919050565b60006020820190508181036000830152612319816122dd565b9050919050565b7f4e487b7100000000000000000000000000000000000000000000000000000000600052602260045260246000fd5b6000600282049050600182168061236757607f821691505b60208210810361237a57612379612320565b5b50919050565b60008190508160005260206000209050919050565b60006020601f8301049050919050565b600082821b905092915050565b6000600883026123e27fffffffffffffffffffffffffffffffffffffffffffffffffffffffffffffffff826123a5565b6123ec86836123a5565b95508019841693508086168417925050509392505050565b6000819050919050565b600061242961242461241f84611b9d565b612404565b611b9d565b9050919050565b6000819050919050565b6124438361240e565b61245761244f82612430565b8484546123b2565b825550505050565b600090565b61246c61245f565b61247781848461243a565b505050565b5b8181101561249b57612490600082612464565b60018101905061247d565b5050565b601f8211156124e0576124b181612380565b6124ba84612395565b810160208510156124c9578190505b6124dd6124d585612395565b83018261247c565b50505b505050565b600082821c905092915050565b6000612503600019846008026124e5565b1980831691505092915050565b600061251c83836124f2565b9150826002028217905092915050565b61253582611c18565b67ffffffffffffffff81111561254e5761254d611f6d565b5b612558825461234f565b61256382828561249f565b600060209050601f8311600181146125965760008415612584578287015190505b61258e8582612510565b8655506125f6565b601f1984166125a486612380565b60005b828110156125cc578489015182556001820191506020850194506020810190506125a7565b868310156125e957848901516125e5601f8916826124f2565b8355505b6001600288020188555050505b505050505050565b60008151905061260d81611f0b565b92915050565b60006020828403121561262957612628611f01565b5b6000612637848285016125fe565b91505092915050565b7f4e4654206d75737420626520617070726f76656420746f206d61726b65740000600082015250565b6000612676601e836121cb565b915061268182612640565b602082019050919050565b600060208201905081810360008301526126a581612669565b9050919050565b6126b581611bd6565b82525050565b60006126c682611c18565b6126d081856121cb565b93506126e0818560208601611c34565b6126e981611c5e565b840191505092915050565b6126fd81611cfe565b82525050565b600060c08201905061271860008301896126ac565b61272560208301886126ac565b6127326040830187611ecd565b818103606083015261274481866126bb565b9050818103608083015261275881856126bb565b905061276760a08301846126f4565b979650505050505050565b7f506c65617365207375626d6974207468652061736b696e672070726963650000600082015250565b60006127a8601e836121cb565b91506127b382612772565b602082019050919050565b600060208201905081810360008301526127d78161279b565b9050919050565b60006127f96127f46127ef84611bb6565b612404565b611bb6565b9050919050565b600061280b826127de565b9050919050565b600061281d82612800565b9050919050565b61282d81612812565b82525050565b60006060820190506128486000830186612824565b61285560208301856126ac565b6128626040830184611ecd565b949350505050565b600081546128778161234f565b61288181866121cb565b9450600182166000811461289c57600181146128b2576128e5565b60ff1983168652811515602002860193506128e5565b6128bb85612380565b60005b838110156128dd578154818901526001820191506020810190506128be565b808801955050505b50505092915050565b600060c0820190506129036000830189612824565b61291060208301886126ac565b61291d6040830187611ecd565b818103606083015261292f818661286a565b90508181036080830152612943818561286a565b905061295260a08301846126f4565b979650505050505050565b7f6964206d757374203c3d206974656d20636f756e740000000000000000000000600082015250565b60006129936015836121cb565b915061299e8261295d565b602082019050919050565b600060208201905081810360008301526129c281612986565b9050919050565b7f6974656d206d757374206265206f6e206d61726b657400000000000000000000600082015250565b60006129ff6016836121cb565b9150612a0a826129c9565b602082019050919050565b60006020820190508181036000830152612a2e816129f2565b9050919050565b7f6d75737420626520746865206f776e6572000000000000000000000000000000600082015250565b6000612a6b6011836121cb565b9150612a7682612a35565b602082019050919050565b60006020820190508181036000830152612a9a81612a5e565b9050919050565b7f4e487b7100000000000000000000000000000000000000000000000000000000600052601160045260246000fd5b6000612adb82611b9d565b91507fffffffffffffffffffffffffffffffffffffffffffffffffffffffffffffffff8203612b0d57612b0c612aa1565b5b600182019050919050565b7f4e487b7100000000000000000000000000000000000000000000000000000000600052603260045260246000fdfea26469706673582212205fb28a56b63e0805018f9966669dd3adea28bb9bb528cd1aa8c13fd382d079e164736f6c63430008110033",
  "linkReferences": {},
  "deployedLinkReferences": {}
}