{
  "_format": "hh-sol-artifact-1",
  "contractName": "NFTMarketplace",
  "sourceName": "contracts/NFTMarketplace.sol",
  "abi": [
    {
      "inputs": [],
      "stateMutability": "nonpayable",
      "type": "constructor"
    },
    {
      "anonymous": false,
      "inputs": [
        {
          "indexed": true,
          "internalType": "uint256",
          "name": "id",
          "type": "uint256"
        },
        {
          "indexed": true,
          "internalType": "address",
          "name": "nftContract",
          "type": "address"
        },
        {
          "indexed": true,
          "internalType": "uint256",
          "name": "tokenId",
          "type": "uint256"
        },
        {
          "indexed": false,
          "internalType": "address",
          "name": "seller",
          "type": "address"
        },
        {
          "indexed": false,
          "internalType": "address",
          "name": "buyer",
          "type": "address"
        },
        {
          "indexed": false,
          "internalType": "uint256",
          "name": "price",
          "type": "uint256"
        },
        {
          "indexed": false,
          "internalType": "enum NFTMarketplace.State",
          "name": "state",
          "type": "uint8"
        }
      ],
      "name": "MarketItemCreated",
      "type": "event"
    },
    {
      "anonymous": false,
      "inputs": [
        {
          "indexed": true,
          "internalType": "uint256",
          "name": "id",
          "type": "uint256"
        },
        {
          "indexed": true,
          "internalType": "address",
          "name": "nftContract",
          "type": "address"
        },
        {
          "indexed": true,
          "internalType": "uint256",
          "name": "tokenId",
          "type": "uint256"
        },
        {
          "indexed": false,
          "internalType": "address",
          "name": "seller",
          "type": "address"
        },
        {
          "indexed": false,
          "internalType": "address",
          "name": "buyer",
          "type": "address"
        },
        {
          "indexed": false,
          "internalType": "uint256",
          "name": "price",
          "type": "uint256"
        },
        {
          "indexed": false,
          "internalType": "enum NFTMarketplace.State",
          "name": "state",
          "type": "uint8"
        }
      ],
      "name": "MarketItemSold",
      "type": "event"
    },
    {
      "anonymous": false,
      "inputs": [
        {
          "indexed": true,
          "internalType": "uint256",
          "name": "id",
          "type": "uint256"
        },
        {
          "indexed": true,
          "internalType": "address",
          "name": "nftContract",
          "type": "address"
        },
        {
          "indexed": true,
          "internalType": "uint256",
          "name": "tokenId",
          "type": "uint256"
        },
        {
          "indexed": false,
          "internalType": "address",
          "name": "seller",
          "type": "address"
        },
        {
          "indexed": false,
          "internalType": "address",
          "name": "buyer",
          "type": "address"
        },
        {
          "indexed": false,
          "internalType": "uint256",
          "name": "price",
          "type": "uint256"
        },
        {
          "indexed": false,
          "internalType": "enum NFTMarketplace.State",
          "name": "state",
          "type": "uint8"
        }
      ],
      "name": "MarketItemUsed",
      "type": "event"
    },
    {
      "inputs": [
        {
          "internalType": "address",
          "name": "nftContract",
          "type": "address"
        },
        {
          "internalType": "uint256",
          "name": "tokenId",
          "type": "uint256"
        },
        {
          "internalType": "uint256",
          "name": "price",
          "type": "uint256"
        }
      ],
      "name": "createMarketItem",
      "outputs": [],
      "stateMutability": "payable",
      "type": "function"
    },
    {
      "inputs": [
        {
          "internalType": "address",
          "name": "nftContract",
          "type": "address"
        },
        {
          "internalType": "uint256",
          "name": "id",
          "type": "uint256"
        }
      ],
      "name": "createMarketSale",
      "outputs": [],
      "stateMutability": "payable",
      "type": "function"
    },
    {
      "inputs": [
        {
          "internalType": "uint256",
          "name": "itemId",
          "type": "uint256"
        }
      ],
      "name": "deleteMarketItem",
      "outputs": [],
      "stateMutability": "nonpayable",
      "type": "function"
    },
    {
      "inputs": [],
      "name": "fetchActiveItems",
      "outputs": [
        {
          "components": [
            {
              "internalType": "uint256",
              "name": "id",
              "type": "uint256"
            },
            {
              "internalType": "address",
              "name": "nftContract",
              "type": "address"
            },
            {
              "internalType": "uint256",
              "name": "tokenId",
              "type": "uint256"
            },
            {
              "internalType": "address payable",
              "name": "seller",
              "type": "address"
            },
            {
              "internalType": "address payable",
              "name": "buyer",
              "type": "address"
            },
            {
              "internalType": "uint256",
              "name": "price",
              "type": "uint256"
            },
            {
              "internalType": "enum NFTMarketplace.State",
              "name": "state",
              "type": "uint8"
            }
          ],
          "internalType": "struct NFTMarketplace.MarketItem[]",
          "name": "",
          "type": "tuple[]"
        }
      ],
      "stateMutability": "view",
      "type": "function"
    },
    {
      "inputs": [],
      "name": "fetchMyCreatedItems",
      "outputs": [
        {
          "components": [
            {
              "internalType": "uint256",
              "name": "id",
              "type": "uint256"
            },
            {
              "internalType": "address",
              "name": "nftContract",
              "type": "address"
            },
            {
              "internalType": "uint256",
              "name": "tokenId",
              "type": "uint256"
            },
            {
              "internalType": "address payable",
              "name": "seller",
              "type": "address"
            },
            {
              "internalType": "address payable",
              "name": "buyer",
              "type": "address"
            },
            {
              "internalType": "uint256",
              "name": "price",
              "type": "uint256"
            },
            {
              "internalType": "enum NFTMarketplace.State",
              "name": "state",
              "type": "uint8"
            }
          ],
          "internalType": "struct NFTMarketplace.MarketItem[]",
          "name": "",
          "type": "tuple[]"
        }
      ],
      "stateMutability": "view",
      "type": "function"
    },
    {
      "inputs": [],
      "name": "fetchMyPurchasedItems",
      "outputs": [
        {
          "components": [
            {
              "internalType": "uint256",
              "name": "id",
              "type": "uint256"
            },
            {
              "internalType": "address",
              "name": "nftContract",
              "type": "address"
            },
            {
              "internalType": "uint256",
              "name": "tokenId",
              "type": "uint256"
            },
            {
              "internalType": "address payable",
              "name": "seller",
              "type": "address"
            },
            {
              "internalType": "address payable",
              "name": "buyer",
              "type": "address"
            },
            {
              "internalType": "uint256",
              "name": "price",
              "type": "uint256"
            },
            {
              "internalType": "enum NFTMarketplace.State",
              "name": "state",
              "type": "uint8"
            }
          ],
          "internalType": "struct NFTMarketplace.MarketItem[]",
          "name": "",
          "type": "tuple[]"
        }
      ],
      "stateMutability": "view",
      "type": "function"
    },
    {
      "inputs": [],
      "name": "fetchMyUsedItems",
      "outputs": [
        {
          "components": [
            {
              "internalType": "uint256",
              "name": "id",
              "type": "uint256"
            },
            {
              "internalType": "address",
              "name": "nftContract",
              "type": "address"
            },
            {
              "internalType": "uint256",
              "name": "tokenId",
              "type": "uint256"
            },
            {
              "internalType": "address payable",
              "name": "seller",
              "type": "address"
            },
            {
              "internalType": "address payable",
              "name": "buyer",
              "type": "address"
            },
            {
              "internalType": "uint256",
              "name": "price",
              "type": "uint256"
            },
            {
              "internalType": "enum NFTMarketplace.State",
              "name": "state",
              "type": "uint8"
            }
          ],
          "internalType": "struct NFTMarketplace.MarketItem[]",
          "name": "",
          "type": "tuple[]"
        }
      ],
      "stateMutability": "view",
      "type": "function"
    },
    {
      "inputs": [],
      "name": "getListingFee",
      "outputs": [
        {
          "internalType": "uint256",
          "name": "",
          "type": "uint256"
        }
      ],
      "stateMutability": "view",
      "type": "function"
    },
    {
      "inputs": [],
      "name": "listingFee",
      "outputs": [
        {
          "internalType": "uint256",
          "name": "",
          "type": "uint256"
        }
      ],
      "stateMutability": "view",
      "type": "function"
    },
    {
      "inputs": [],
      "name": "marketowner",
      "outputs": [
        {
          "internalType": "address payable",
          "name": "",
          "type": "address"
        }
      ],
      "stateMutability": "view",
      "type": "function"
    },
    {
      "inputs": [
        {
          "internalType": "uint256",
          "name": "itemId",
          "type": "uint256"
        }
      ],
      "name": "usedMarketItem",
      "outputs": [],
      "stateMutability": "nonpayable",
      "type": "function"
    },
    {
      "inputs": [
        {
          "internalType": "uint256",
          "name": "itemId",
          "type": "uint256"
        },
        {
          "internalType": "address",
          "name": "buyer",
          "type": "address"
        }
      ],
      "name": "usedMarketItemMerchant",
      "outputs": [],
      "stateMutability": "nonpayable",
      "type": "function"
    }
  ],
  "bytecode": "0x60806040526658d15e1762800060045534801561001b57600080fd5b50600160008190555033600360006101000a81548173ffffffffffffffffffffffffffffffffffffffff021916908373ffffffffffffffffffffffffffffffffffffffff1602179055506129de806100746000396000f3fe6080604052600436106100a75760003560e01c8063a9c0714511610064578063a9c071451461019d578063ab76ce16146101c6578063b8fe6abe146101f1578063c23b139e1461021c578063da0841d514610238578063ef8da9da14610261576100a7565b8063332b386b146100ac57806358eb2df5146100d75780635e385b92146100f35780636a1b7ecc1461011e57806377fd98af146101495780638bb9acc214610174575b600080fd5b3480156100b857600080fd5b506100c161028c565b6040516100ce919061218f565b60405180910390f35b6100f160048036038101906100ec919061220e565b61029d565b005b3480156100ff57600080fd5b50610108610698565b6040516101159190612270565b60405180910390f35b34801561012a57600080fd5b506101336106be565b604051610140919061229a565b60405180910390f35b34801561015557600080fd5b5061015e6106c4565b60405161016b919061218f565b60405180910390f35b34801561018057600080fd5b5061019b600480360381019061019691906122b5565b6106d5565b005b3480156101a957600080fd5b506101c460048036038101906101bf91906122b5565b6109fe565b005b3480156101d257600080fd5b506101db610e33565b6040516101e8919061218f565b60405180910390f35b3480156101fd57600080fd5b50610206610e44565b604051610213919061229a565b60405180910390f35b610236600480360381019061023191906122e2565b610e4e565b005b34801561024457600080fd5b5061025f600480360381019061025a9190612322565b61125a565b005b34801561026d57600080fd5b50610276611584565b604051610283919061218f565b60405180910390f35b60606102986000611595565b905090565b6002600054036102e2576040517f08c379a00000000000000000000000000000000000000000000000000000000081526004016102d9906123bf565b60405180910390fd5b60026000819055506000811161032d576040517f08c379a00000000000000000000000000000000000000000000000000000000081526004016103249061242b565b60405180910390fd5b6004543414610371576040517f08c379a000000000000000000000000000000000000000000000000000000000815260040161036890612497565b60405180910390fd5b61037b6001611b12565b60006103876001611b28565b90506040518060e001604052808281526020018573ffffffffffffffffffffffffffffffffffffffff1681526020018481526020013373ffffffffffffffffffffffffffffffffffffffff168152602001600073ffffffffffffffffffffffffffffffffffffffff1681526020018381526020016000600381111561040f5761040e612007565b5b815250600560008381526020019081526020016000206000820151816000015560208201518160010160006101000a81548173ffffffffffffffffffffffffffffffffffffffff021916908373ffffffffffffffffffffffffffffffffffffffff1602179055506040820151816002015560608201518160030160006101000a81548173ffffffffffffffffffffffffffffffffffffffff021916908373ffffffffffffffffffffffffffffffffffffffff16021790555060808201518160040160006101000a81548173ffffffffffffffffffffffffffffffffffffffff021916908373ffffffffffffffffffffffffffffffffffffffff16021790555060a0820151816005015560c08201518160060160006101000a81548160ff0219169083600381111561054357610542612007565b5b02179055509050503073ffffffffffffffffffffffffffffffffffffffff168473ffffffffffffffffffffffffffffffffffffffff1663081812fc856040518263ffffffff1660e01b815260040161059b919061229a565b602060405180830381865afa1580156105b8573d6000803e3d6000fd5b505050506040513d601f19601f820116820180604052508101906105dc91906124cc565b73ffffffffffffffffffffffffffffffffffffffff1614610632576040517f08c379a000000000000000000000000000000000000000000000000000000000815260040161062990612545565b60405180910390fd5b828473ffffffffffffffffffffffffffffffffffffffff16827fb0a8dcfc08f1150d20def3c46440be585f61cce1bdbb0fdf16bc597f471c6e703360008760006040516106829493929190612583565b60405180910390a4506001600081905550505050565b600360009054906101000a900473ffffffffffffffffffffffffffffffffffffffff1681565b60045481565b60606106d06003611595565b905090565b60026000540361071a576040517f08c379a0000000000000000000000000000000000000000000000000000000008152600401610711906123bf565b60405180910390fd5b600260008190555061072c6001611b28565b81111561076e576040517f08c379a000000000000000000000000000000000000000000000000000000000815260040161076590612614565b60405180910390fd5b6001600381111561078257610781612007565b5b6005600083815260200190815260200160002060060160009054906101000a900460ff1660038111156107b8576107b7612007565b5b146107f8576040517f08c379a00000000000000000000000000000000000000000000000000000000081526004016107ef90612680565b60405180910390fd5b60006005600083815260200190815260200160002090503373ffffffffffffffffffffffffffffffffffffffff168160010160009054906101000a900473ffffffffffffffffffffffffffffffffffffffff1673ffffffffffffffffffffffffffffffffffffffff16636352211e83600201546040518263ffffffff1660e01b8152600401610887919061229a565b602060405180830381865afa1580156108a4573d6000803e3d6000fd5b505050506040513d601f19601f820116820180604052508101906108c891906124cc565b73ffffffffffffffffffffffffffffffffffffffff161461091e576040517f08c379a0000000000000000000000000000000000000000000000000000000008152600401610915906126ec565b60405180910390fd5b60038160060160006101000a81548160ff0219169083600381111561094657610945612007565b5b021790555080600201548160010160009054906101000a900473ffffffffffffffffffffffffffffffffffffffff1673ffffffffffffffffffffffffffffffffffffffff16837f18bfb3f32043d18dbb474beeb0033699d8cf5bba2e77d681fe8cec78cf5717ae8460030160009054906101000a900473ffffffffffffffffffffffffffffffffffffffff1633866005015460036040516109ea949392919061276b565b60405180910390a450600160008190555050565b600260005403610a43576040517f08c379a0000000000000000000000000000000000000000000000000000000008152600401610a3a906123bf565b60405180910390fd5b6002600081905550610a556001611b28565b811115610a97576040517f08c379a0000000000000000000000000000000000000000000000000000000008152600401610a8e90612614565b60405180910390fd5b60006003811115610aab57610aaa612007565b5b6005600083815260200190815260200160002060060160009054906101000a900460ff166003811115610ae157610ae0612007565b5b14610b21576040517f08c379a0000000000000000000000000000000000000000000000000000000008152600401610b1890612680565b60405180910390fd5b60006005600083815260200190815260200160002090503373ffffffffffffffffffffffffffffffffffffffff168160010160009054906101000a900473ffffffffffffffffffffffffffffffffffffffff1673ffffffffffffffffffffffffffffffffffffffff16636352211e83600201546040518263ffffffff1660e01b8152600401610bb0919061229a565b602060405180830381865afa158015610bcd573d6000803e3d6000fd5b505050506040513d601f19601f82011682018060405250810190610bf191906124cc565b73ffffffffffffffffffffffffffffffffffffffff1614610c47576040517f08c379a0000000000000000000000000000000000000000000000000000000008152600401610c3e906126ec565b60405180910390fd5b3073ffffffffffffffffffffffffffffffffffffffff168160010160009054906101000a900473ffffffffffffffffffffffffffffffffffffffff1673ffffffffffffffffffffffffffffffffffffffff1663081812fc83600201546040518263ffffffff1660e01b8152600401610cbf919061229a565b602060405180830381865afa158015610cdc573d6000803e3d6000fd5b505050506040513d601f19601f82011682018060405250810190610d0091906124cc565b73ffffffffffffffffffffffffffffffffffffffff1614610d56576040517f08c379a0000000000000000000000000000000000000000000000000000000008152600401610d4d90612545565b60405180910390fd5b60028160060160006101000a81548160ff02191690836003811115610d7e57610d7d612007565b5b021790555080600201548160010160009054906101000a900473ffffffffffffffffffffffffffffffffffffffff1673ffffffffffffffffffffffffffffffffffffffff16837f064a9702da2c4a0a9af4cabda06e4715203ed7b0b3bb67eca6d3168e1c519bff8460030160009054906101000a900473ffffffffffffffffffffffffffffffffffffffff166000806002604051610e1f94939291906127eb565b60405180910390a450600160008190555050565b6060610e3f6001611595565b905090565b6000600454905090565b600260005403610e93576040517f08c379a0000000000000000000000000000000000000000000000000000000008152600401610e8a906123bf565b60405180910390fd5b60026000819055506000600560008381526020019081526020016000209050600081600501549050600082600201549050813414610f06576040517f08c379a0000000000000000000000000000000000000000000000000000000008152600401610efd9061287c565b60405180910390fd5b3073ffffffffffffffffffffffffffffffffffffffff168573ffffffffffffffffffffffffffffffffffffffff1663081812fc836040518263ffffffff1660e01b8152600401610f56919061229a565b602060405180830381865afa158015610f73573d6000803e3d6000fd5b505050506040513d601f19601f82011682018060405250810190610f9791906124cc565b73ffffffffffffffffffffffffffffffffffffffff1614610fed576040517f08c379a0000000000000000000000000000000000000000000000000000000008152600401610fe490612545565b60405180910390fd5b338360040160006101000a81548173ffffffffffffffffffffffffffffffffffffffff021916908373ffffffffffffffffffffffffffffffffffffffff16021790555060018360060160006101000a81548160ff0219169083600381111561105857611057612007565b5b02179055506110676002611b12565b8473ffffffffffffffffffffffffffffffffffffffff166323b872dd8460030160009054906101000a900473ffffffffffffffffffffffffffffffffffffffff1633846040518463ffffffff1660e01b81526004016110c89392919061289c565b600060405180830381600087803b1580156110e257600080fd5b505af11580156110f6573d6000803e3d6000fd5b50505050600360009054906101000a900473ffffffffffffffffffffffffffffffffffffffff1673ffffffffffffffffffffffffffffffffffffffff166108fc6004549081150290604051600060405180830381858888f19350505050158015611164573d6000803e3d6000fd5b508260030160009054906101000a900473ffffffffffffffffffffffffffffffffffffffff1673ffffffffffffffffffffffffffffffffffffffff166108fc349081150290604051600060405180830381858888f193505050501580156111cf573d6000803e3d6000fd5b50808573ffffffffffffffffffffffffffffffffffffffff16857f064a9702da2c4a0a9af4cabda06e4715203ed7b0b3bb67eca6d3168e1c519bff8660030160009054906101000a900473ffffffffffffffffffffffffffffffffffffffff1633876001604051611243949392919061276b565b60405180910390a450505060016000819055505050565b60026000540361129f576040517f08c379a0000000000000000000000000000000000000000000000000000000008152600401611296906123bf565b60405180910390fd5b60026000819055506112b16001611b28565b8211156112f3576040517f08c379a00000000000000000000000000000000000000000000000000000000081526004016112ea90612614565b60405180910390fd5b6001600381111561130757611306612007565b5b6005600084815260200190815260200160002060060160009054906101000a900460ff16600381111561133d5761133c612007565b5b1461137d576040517f08c379a000000000000000000000000000000000000000000000000000000000815260040161137490612680565b60405180910390fd5b60006005600084815260200190815260200160002090508173ffffffffffffffffffffffffffffffffffffffff168160010160009054906101000a900473ffffffffffffffffffffffffffffffffffffffff1673ffffffffffffffffffffffffffffffffffffffff16636352211e83600201546040518263ffffffff1660e01b815260040161140c919061229a565b602060405180830381865afa158015611429573d6000803e3d6000fd5b505050506040513d601f19601f8201168201806040525081019061144d91906124cc565b73ffffffffffffffffffffffffffffffffffffffff16146114a3576040517f08c379a000000000000000000000000000000000000000000000000000000000815260040161149a906126ec565b60405180910390fd5b60038160060160006101000a81548160ff021916908360038111156114cb576114ca612007565b5b021790555080600201548160010160009054906101000a900473ffffffffffffffffffffffffffffffffffffffff1673ffffffffffffffffffffffffffffffffffffffff16847f18bfb3f32043d18dbb474beeb0033699d8cf5bba2e77d681fe8cec78cf5717ae8460030160009054906101000a900473ffffffffffffffffffffffffffffffffffffffff16868660050154600360405161156f949392919061276b565b60405180910390a45060016000819055505050565b60606115906002611595565b905090565b606060006115a36001611b28565b9050600080600190505b82811161175d57611736600560008381526020019081526020016000206040518060e0016040529081600082015481526020016001820160009054906101000a900473ffffffffffffffffffffffffffffffffffffffff1673ffffffffffffffffffffffffffffffffffffffff1673ffffffffffffffffffffffffffffffffffffffff168152602001600282015481526020016003820160009054906101000a900473ffffffffffffffffffffffffffffffffffffffff1673ffffffffffffffffffffffffffffffffffffffff1673ffffffffffffffffffffffffffffffffffffffff1681526020016004820160009054906101000a900473ffffffffffffffffffffffffffffffffffffffff1673ffffffffffffffffffffffffffffffffffffffff1673ffffffffffffffffffffffffffffffffffffffff168152602001600582015481526020016006820160009054906101000a900460ff16600381111561171a57611719612007565b5b600381111561172c5761172b612007565b5b8152505086611b36565b1561174a57818061174690612902565b9250505b808061175590612902565b9150506115ad565b506000808267ffffffffffffffff81111561177b5761177a61294a565b5b6040519080825280602002602001820160405280156117b457816020015b6117a1611ecf565b8152602001906001900390816117995790505b5090506000600190505b848111611b0557611947600560008381526020019081526020016000206040518060e0016040529081600082015481526020016001820160009054906101000a900473ffffffffffffffffffffffffffffffffffffffff1673ffffffffffffffffffffffffffffffffffffffff1673ffffffffffffffffffffffffffffffffffffffff168152602001600282015481526020016003820160009054906101000a900473ffffffffffffffffffffffffffffffffffffffff1673ffffffffffffffffffffffffffffffffffffffff1673ffffffffffffffffffffffffffffffffffffffff1681526020016004820160009054906101000a900473ffffffffffffffffffffffffffffffffffffffff1673ffffffffffffffffffffffffffffffffffffffff1673ffffffffffffffffffffffffffffffffffffffff168152602001600582015481526020016006820160009054906101000a900460ff16600381111561192b5761192a612007565b5b600381111561193d5761193c612007565b5b8152505088611b36565b15611af257600560008281526020019081526020016000206040518060e0016040529081600082015481526020016001820160009054906101000a900473ffffffffffffffffffffffffffffffffffffffff1673ffffffffffffffffffffffffffffffffffffffff1673ffffffffffffffffffffffffffffffffffffffff168152602001600282015481526020016003820160009054906101000a900473ffffffffffffffffffffffffffffffffffffffff1673ffffffffffffffffffffffffffffffffffffffff1673ffffffffffffffffffffffffffffffffffffffff1681526020016004820160009054906101000a900473ffffffffffffffffffffffffffffffffffffffff1673ffffffffffffffffffffffffffffffffffffffff1673ffffffffffffffffffffffffffffffffffffffff168152602001600582015481526020016006820160009054906101000a900460ff166003811115611aaf57611aae612007565b5b6003811115611ac157611ac0612007565b5b81525050828481518110611ad857611ad7612979565b5b60200260200101819052508280611aee90612902565b9350505b8080611afd90612902565b9150506117be565b5080945050505050919050565b6001816000016000828254019250508190555050565b600081600001549050919050565b600060026003811115611b4c57611b4b612007565b5b826003811115611b5f57611b5e612007565b5b03611be1573373ffffffffffffffffffffffffffffffffffffffff16836060015173ffffffffffffffffffffffffffffffffffffffff16148015611bcc575060026003811115611bb257611bb1612007565b5b8360c001516003811115611bc957611bc8612007565b5b14155b611bd7576000611bda565b60015b9050611ec9565b60016003811115611bf557611bf4612007565b5b826003811115611c0857611c07612007565b5b03611cbd573373ffffffffffffffffffffffffffffffffffffffff16836080015173ffffffffffffffffffffffffffffffffffffffff16148015611c745750600380811115611c5a57611c59612007565b5b8360c001516003811115611c7157611c70612007565b5b14155b8015611ca8575060016003811115611c8f57611c8e612007565b5b8360c001516003811115611ca657611ca5612007565b5b145b611cb3576000611cb6565b60015b9050611ec9565b60006003811115611cd157611cd0612007565b5b826003811115611ce457611ce3612007565b5b03611e1e57600073ffffffffffffffffffffffffffffffffffffffff16836080015173ffffffffffffffffffffffffffffffffffffffff16148015611d51575060006003811115611d3857611d37612007565b5b8360c001516003811115611d4f57611d4e612007565b5b145b8015611e0957503073ffffffffffffffffffffffffffffffffffffffff16836020015173ffffffffffffffffffffffffffffffffffffffff1663081812fc85604001516040518263ffffffff1660e01b8152600401611db0919061229a565b602060405180830381865afa158015611dcd573d6000803e3d6000fd5b505050506040513d601f19601f82011682018060405250810190611df191906124cc565b73ffffffffffffffffffffffffffffffffffffffff16145b611e14576000611e17565b60015b9050611ec9565b600380811115611e3157611e30612007565b5b826003811115611e4457611e43612007565b5b03611ec4573373ffffffffffffffffffffffffffffffffffffffff16836080015173ffffffffffffffffffffffffffffffffffffffff16148015611eaf5750600380811115611e9657611e95612007565b5b8360c001516003811115611ead57611eac612007565b5b145b611eba576000611ebd565b60015b9050611ec9565b600090505b92915050565b6040518060e0016040528060008152602001600073ffffffffffffffffffffffffffffffffffffffff16815260200160008152602001600073ffffffffffffffffffffffffffffffffffffffff168152602001600073ffffffffffffffffffffffffffffffffffffffff1681526020016000815260200160006003811115611f5a57611f59612007565b5b81525090565b600081519050919050565b600082825260208201905092915050565b6000819050602082019050919050565b6000819050919050565b611f9f81611f8c565b82525050565b600073ffffffffffffffffffffffffffffffffffffffff82169050919050565b6000611fd082611fa5565b9050919050565b611fe081611fc5565b82525050565b6000611ff182611fa5565b9050919050565b61200181611fe6565b82525050565b7f4e487b7100000000000000000000000000000000000000000000000000000000600052602160045260246000fd5b6004811061204757612046612007565b5b50565b600081905061205882612036565b919050565b60006120688261204a565b9050919050565b6120788161205d565b82525050565b60e0820160008201516120946000850182611f96565b5060208201516120a76020850182611fd7565b5060408201516120ba6040850182611f96565b5060608201516120cd6060850182611ff8565b5060808201516120e06080850182611ff8565b5060a08201516120f360a0850182611f96565b5060c082015161210660c085018261206f565b50505050565b6000612118838361207e565b60e08301905092915050565b6000602082019050919050565b600061213c82611f60565b6121468185611f6b565b935061215183611f7c565b8060005b83811015612182578151612169888261210c565b975061217483612124565b925050600181019050612155565b5085935050505092915050565b600060208201905081810360008301526121a98184612131565b905092915050565b600080fd5b6121bf81611fc5565b81146121ca57600080fd5b50565b6000813590506121dc816121b6565b92915050565b6121eb81611f8c565b81146121f657600080fd5b50565b600081359050612208816121e2565b92915050565b600080600060608486031215612227576122266121b1565b5b6000612235868287016121cd565b9350506020612246868287016121f9565b9250506040612257868287016121f9565b9150509250925092565b61226a81611fe6565b82525050565b60006020820190506122856000830184612261565b92915050565b61229481611f8c565b82525050565b60006020820190506122af600083018461228b565b92915050565b6000602082840312156122cb576122ca6121b1565b5b60006122d9848285016121f9565b91505092915050565b600080604083850312156122f9576122f86121b1565b5b6000612307858286016121cd565b9250506020612318858286016121f9565b9150509250929050565b60008060408385031215612339576123386121b1565b5b6000612347858286016121f9565b9250506020612358858286016121cd565b9150509250929050565b600082825260208201905092915050565b7f5265656e7472616e637947756172643a207265656e7472616e742063616c6c00600082015250565b60006123a9601f83612362565b91506123b482612373565b602082019050919050565b600060208201905081810360008301526123d88161239c565b9050919050565b7f5072696365206d757374206265206174206c6561737420312077656900000000600082015250565b6000612415601c83612362565b9150612420826123df565b602082019050919050565b6000602082019050818103600083015261244481612408565b9050919050565b7f466565206d75737420626520657175616c20746f206c697374696e6720666565600082015250565b6000612481602083612362565b915061248c8261244b565b602082019050919050565b600060208201905081810360008301526124b081612474565b9050919050565b6000815190506124c6816121b6565b92915050565b6000602082840312156124e2576124e16121b1565b5b60006124f0848285016124b7565b91505092915050565b7f4e4654206d75737420626520617070726f76656420746f206d61726b65740000600082015250565b600061252f601e83612362565b915061253a826124f9565b602082019050919050565b6000602082019050818103600083015261255e81612522565b9050919050565b61256e81611fc5565b82525050565b61257d8161205d565b82525050565b60006080820190506125986000830187612565565b6125a56020830186612565565b6125b2604083018561228b565b6125bf6060830184612574565b95945050505050565b7f6964206d757374203c3d206974656d20636f756e740000000000000000000000600082015250565b60006125fe601583612362565b9150612609826125c8565b602082019050919050565b6000602082019050818103600083015261262d816125f1565b9050919050565b7f6974656d206d757374206265206f6e206d61726b657400000000000000000000600082015250565b600061266a601683612362565b915061267582612634565b602082019050919050565b600060208201905081810360008301526126998161265d565b9050919050565b7f6d75737420626520746865206f776e6572000000000000000000000000000000600082015250565b60006126d6601183612362565b91506126e1826126a0565b602082019050919050565b60006020820190508181036000830152612705816126c9565b9050919050565b6000819050919050565b600061273161272c61272784611fa5565b61270c565b611fa5565b9050919050565b600061274382612716565b9050919050565b600061275582612738565b9050919050565b6127658161274a565b82525050565b6000608082019050612780600083018761275c565b61278d6020830186612565565b61279a604083018561228b565b6127a76060830184612574565b95945050505050565b6000819050919050565b60006127d56127d06127cb846127b0565b61270c565b611f8c565b9050919050565b6127e5816127ba565b82525050565b6000608082019050612800600083018761275c565b61280d6020830186612565565b61281a60408301856127dc565b6128276060830184612574565b95945050505050565b7f506c65617365207375626d6974207468652061736b696e672070726963650000600082015250565b6000612866601e83612362565b915061287182612830565b602082019050919050565b6000602082019050818103600083015261289581612859565b9050919050565b60006060820190506128b1600083018661275c565b6128be6020830185612565565b6128cb604083018461228b565b949350505050565b7f4e487b7100000000000000000000000000000000000000000000000000000000600052601160045260246000fd5b600061290d82611f8c565b91507fffffffffffffffffffffffffffffffffffffffffffffffffffffffffffffffff820361293f5761293e6128d3565b5b600182019050919050565b7f4e487b7100000000000000000000000000000000000000000000000000000000600052604160045260246000fd5b7f4e487b7100000000000000000000000000000000000000000000000000000000600052603260045260246000fdfea26469706673582212205e25af68b81e0b82800f34e215dfc20bd4f758c3763e87a62658ff6b0df7538c64736f6c63430008110033",
  "linkReferences": {},
  "deployedLinkReferences": {}
}